:100000000C9434000C9446000C9446000C9446006A
:100010000C9446000C9446000C9446000C94460048
:100020000C9446000C9446000C9446000C94460038
:100030000C9446000C9446000C9446000C94460028
:100040000C949F000C9446000C9446000C944600BF
:100050000C9446000C9446000C9446000C94460008
:100060000C9446000C94460011241FBECFEFD8E03C
:10007000DEBFCDBF21E0A0E0B1E001C01D92A930FC
:10008000B207E1F70E94E9000C9446010C940000CD
:100090003FB7F8948091050190910601A091070166
:1000A000B091080126B5A89B05C02F3F19F0019615
:1000B000A11DB11D3FBFBA2FA92F982F8827BC01C2
:1000C000CD01620F711D811D911D42E0660F771FEA
:1000D000881F991F4A95D1F708958F929F92AF92EA
:1000E000BF92CF92DF92EF92FF924B015C010E9490
:1000F00048006B017C010E9448006C197D098E0943
:100100009F09683E734081059105A8F321E0821A9A
:100110009108A108B10888EEC80E83E0D81EE11C42
:10012000F11C81149104A104B10429F7FF90EF9010
:10013000DF90CF90BF90AF909F908F9008951F92C7
:100140000F920FB60F9211242F933F938F939F938B
:10015000AF93BF938091010190910201A09103019F
:10016000B09104013091000123E0230F2D3758F5A1
:100170000196A11DB11D2093000180930101909370
:100180000201A0930301B0930401809105019091B5
:100190000601A0910701B09108010196A11DB11DB2
:1001A0008093050190930601A0930701B093080185
:1001B000BF91AF919F918F913F912F910F900FBE63
:1001C0000F901F90189526E8230F0296A11DB11DD0
:1001D000D2CF789484B5826084BD84B5816084BDBB
:1001E00085B5826085BD85B5816085BD80916E00D5
:1001F000816080936E001092810080918100826006
:100200008093810080918100816080938100809142
:1002100080008160809380008091B1008460809331
:10022000B1008091B00081608093B00080917A002D
:10023000846080937A0080917A00826080937A0053
:1002400080917A00816080937A0080917A00806842
:1002500080937A001092C10080E28AB98CE084B960
:10026000C0E0D0E02B9A5D9A64E170E080E090E01D
:100270000E946D005D9862E070E080E090E00E9476
:100280006D00209779F30E940000ECCFF894FFCF27
:00000001FF
